{
  "_format": "hh-sol-artifact-1",
  "contractName": "NFTMarketplaceV1",
  "sourceName": "contracts/NFTMarketplace_V1.sol",
  "abi": [
    {
      "inputs": [
        {
          "internalType": "address",
          "name": "_collection",
          "type": "address"
        },
        {
          "internalType": "uint256",
          "name": "_nftsId",
          "type": "uint256"
        },
        {
          "internalType": "address",
          "name": "_tokenAddress",
          "type": "address"
        },
        {
          "internalType": "uint256",
          "name": "_price",
          "type": "uint256"
        }
      ],
      "name": "createOrder",
      "outputs": [],
      "stateMutability": "nonpayable",
      "type": "function"
    },
    {
      "inputs": [],
      "name": "getCounterOrder",
      "outputs": [
        {
          "internalType": "uint256",
          "name": "",
          "type": "uint256"
        }
      ],
      "stateMutability": "view",
      "type": "function"
    },
    {
      "inputs": [
        {
          "internalType": "uint256",
          "name": "_orderId",
          "type": "uint256"
        }
      ],
      "name": "matchOrder",
      "outputs": [],
      "stateMutability": "nonpayable",
      "type": "function"
    }
  ],
  "bytecode": "0x608060405234801561001057600080fd5b50610d40806100206000396000f3fe608060405234801561001057600080fd5b50600436106100415760003560e01c8063410bd18714610046578063887012c114610064578063fc05ca3114610080575b600080fd5b61004e61009c565b60405161005b9190610ae9565b60405180910390f35b61007e600480360381019061007991906108f2565b6100a5565b005b61009a60048036038101906100959190610866565b610419565b005b60008054905090565b6000600160008381526020019081526020016000206040518060a00160405290816000820160009054906101000a900473ffffffffffffffffffffffffffffffffffffffff1673ffffffffffffffffffffffffffffffffffffffff1673ffffffffffffffffffffffffffffffffffffffff1681526020016001820160009054906101000a900473ffffffffffffffffffffffffffffffffffffffff1673ffffffffffffffffffffffffffffffffffffffff1673ffffffffffffffffffffffffffffffffffffffff168152602001600282015481526020016003820160009054906101000a900473ffffffffffffffffffffffffffffffffffffffff1673ffffffffffffffffffffffffffffffffffffffff1673ffffffffffffffffffffffffffffffffffffffff16815260200160048201548152505090506000816060015173ffffffffffffffffffffffffffffffffffffffff1663dd62ed3e33306040518363ffffffff1660e01b815260040161021e929190610a09565b60206040518083038186803b15801561023657600080fd5b505afa15801561024a573d6000803e3d6000fd5b505050506040513d601f19601f8201168201806040525081019061026e919061091b565b14156102af576040517f08c379a00000000000000000000000000000000000000000000000000000000081526004016102a690610aa9565b60405180910390fd5b8060800151816060015173ffffffffffffffffffffffffffffffffffffffff166370a08231336040518263ffffffff1660e01b81526004016102f191906109ee565b60206040518083038186803b15801561030957600080fd5b505afa15801561031d573d6000803e3d6000fd5b505050506040513d601f19601f82011682018060405250810190610341919061091b565b1015610382576040517f08c379a000000000000000000000000000000000000000000000000000000000815260040161037990610ac9565b60405180910390fd5b806020015173ffffffffffffffffffffffffffffffffffffffff166323b872dd303384604001516040518463ffffffff1660e01b81526004016103c793929190610a32565b600060405180830381600087803b1580156103e157600080fd5b505af11580156103f5573d6000803e3d6000fd5b50505050600060016000848152602001908152602001600020600201819055505050565b3373ffffffffffffffffffffffffffffffffffffffff168473ffffffffffffffffffffffffffffffffffffffff16636352211e856040518263ffffffff1660e01b81526004016104699190610ae9565b60206040518083038186803b15801561048157600080fd5b505afa158015610495573d6000803e3d6000fd5b505050506040513d601f19601f820116820180604052508101906104b9919061083d565b73ffffffffffffffffffffffffffffffffffffffff161461050f576040517f08c379a000000000000000000000000000000000000000000000000000000000815260040161050690610a89565b60405180910390fd5b8373ffffffffffffffffffffffffffffffffffffffff1663e985e9c533306040518363ffffffff1660e01b815260040161054a929190610a09565b60206040518083038186803b15801561056257600080fd5b505afa158015610576573d6000803e3d6000fd5b505050506040513d601f19601f8201168201806040525081019061059a91906108c9565b6105d9576040517f08c379a00000000000000000000000000000000000000000000000000000000081526004016105d090610a69565b60405180910390fd5b8373ffffffffffffffffffffffffffffffffffffffff166323b872dd3330866040518463ffffffff1660e01b815260040161061693929190610a32565b600060405180830381600087803b15801561063057600080fd5b505af1158015610644573d6000803e3d6000fd5b5050505060006040518060a001604052803373ffffffffffffffffffffffffffffffffffffffff1681526020018673ffffffffffffffffffffffffffffffffffffffff1681526020018581526020018473ffffffffffffffffffffffffffffffffffffffff16815260200183815250905080600160008054815260200190815260200160002060008201518160000160006101000a81548173ffffffffffffffffffffffffffffffffffffffff021916908373ffffffffffffffffffffffffffffffffffffffff16021790555060208201518160010160006101000a81548173ffffffffffffffffffffffffffffffffffffffff021916908373ffffffffffffffffffffffffffffffffffffffff1602179055506040820151816002015560608201518160030160006101000a81548173ffffffffffffffffffffffffffffffffffffffff021916908373ffffffffffffffffffffffffffffffffffffffff160217905550608082015181600401559050506000808154809291906107c890610b5d565b91905055505050505050565b6000813590506107e381610cc5565b92915050565b6000815190506107f881610cc5565b92915050565b60008151905061080d81610cdc565b92915050565b60008135905061082281610cf3565b92915050565b60008151905061083781610cf3565b92915050565b60006020828403121561084f57600080fd5b600061085d848285016107e9565b91505092915050565b6000806000806080858703121561087c57600080fd5b600061088a878288016107d4565b945050602061089b87828801610813565b93505060406108ac878288016107d4565b92505060606108bd87828801610813565b91505092959194509250565b6000602082840312156108db57600080fd5b60006108e9848285016107fe565b91505092915050565b60006020828403121561090457600080fd5b600061091284828501610813565b91505092915050565b60006020828403121561092d57600080fd5b600061093b84828501610828565b91505092915050565b61094d81610b15565b82525050565b6000610960601583610b04565b915061096b82610bd5565b602082019050919050565b6000610983602983610b04565b915061098e82610bfe565b604082019050919050565b60006109a6601783610b04565b91506109b182610c4d565b602082019050919050565b60006109c9603783610b04565b91506109d482610c76565b604082019050919050565b6109e881610b53565b82525050565b6000602082019050610a036000830184610944565b92915050565b6000604082019050610a1e6000830185610944565b610a2b6020830184610944565b9392505050565b6000606082019050610a476000830186610944565b610a546020830185610944565b610a6160408301846109df565b949350505050565b60006020820190508181036000830152610a8281610953565b9050919050565b60006020820190508181036000830152610aa281610976565b9050919050565b60006020820190508181036000830152610ac281610999565b9050919050565b60006020820190508181036000830152610ae2816109bc565b9050919050565b6000602082019050610afe60008301846109df565b92915050565b600082825260208201905092915050565b6000610b2082610b33565b9050919050565b60008115159050919050565b600073ffffffffffffffffffffffffffffffffffffffff82169050919050565b6000819050919050565b6000610b6882610b53565b91507fffffffffffffffffffffffffffffffffffffffffffffffffffffffffffffffff821415610b9b57610b9a610ba6565b5b600182019050919050565b7f4e487b7100000000000000000000000000000000000000000000000000000000600052601160045260246000fd5b7f4e4654206e65656420746f20617070726f76616c2e0000000000000000000000600082015250565b7f4f6e6c79204e46542773206f776e65722068617665207065726d697420746f2060008201527f7472616e736665722e0000000000000000000000000000000000000000000000602082015250565b7f546f6b656e206e65656420746f20617070726f76616c2e000000000000000000600082015250565b7f427579657227732062616c616e6365206861766520746f20677265617465722060008201527f7468616e206f7220657175616c206e6674277072696365000000000000000000602082015250565b610cce81610b15565b8114610cd957600080fd5b50565b610ce581610b27565b8114610cf057600080fd5b50565b610cfc81610b53565b8114610d0757600080fd5b5056fea2646970667358221220867229fba1173f52062a7825d6906a241590b606256d87b004a0476b8174597b64736f6c63430008020033",
  "linkReferences": {},
  "deployedLinkReferences": {}
}