{
  "_format": "hh-sol-artifact-1",
  "contractName": "NFTMarketplaceV2",
  "sourceName": "contracts/NFTMarketplace_V2.sol",
  "abi": [
    {
      "inputs": [
        {
          "internalType": "address",
          "name": "_treasuryAddress",
          "type": "address"
        }
      ],
      "name": "addTreasury",
      "outputs": [],
      "stateMutability": "nonpayable",
      "type": "function"
    },
    {
      "inputs": [
        {
          "internalType": "address",
          "name": "_collection",
          "type": "address"
        },
        {
          "internalType": "uint256",
          "name": "_nftsId",
          "type": "uint256"
        },
        {
          "internalType": "address",
          "name": "_tokenAddress",
          "type": "address"
        },
        {
          "internalType": "uint256",
          "name": "_price",
          "type": "uint256"
        }
      ],
      "name": "createOrder",
      "outputs": [],
      "stateMutability": "nonpayable",
      "type": "function"
    },
    {
      "inputs": [],
      "name": "getCounterOrder",
      "outputs": [
        {
          "internalType": "uint256",
          "name": "",
          "type": "uint256"
        }
      ],
      "stateMutability": "view",
      "type": "function"
    },
    {
      "inputs": [],
      "name": "getFee",
      "outputs": [
        {
          "internalType": "uint256",
          "name": "",
          "type": "uint256"
        }
      ],
      "stateMutability": "view",
      "type": "function"
    },
    {
      "inputs": [],
      "name": "getTreasury",
      "outputs": [
        {
          "internalType": "address",
          "name": "",
          "type": "address"
        }
      ],
      "stateMutability": "view",
      "type": "function"
    },
    {
      "inputs": [
        {
          "internalType": "uint256",
          "name": "key",
          "type": "uint256"
        }
      ],
      "name": "isOrderExists",
      "outputs": [
        {
          "internalType": "bool",
          "name": "",
          "type": "bool"
        }
      ],
      "stateMutability": "view",
      "type": "function"
    },
    {
      "inputs": [
        {
          "internalType": "uint256",
          "name": "_orderId",
          "type": "uint256"
        }
      ],
      "name": "matchOrder",
      "outputs": [],
      "stateMutability": "nonpayable",
      "type": "function"
    },
    {
      "inputs": [
        {
          "internalType": "uint256",
          "name": "_fee",
          "type": "uint256"
        }
      ],
      "name": "setFee",
      "outputs": [],
      "stateMutability": "nonpayable",
      "type": "function"
    }
  ],
  "bytecode": "0x608060405234801561001057600080fd5b506112ec806100206000396000f3fe608060405234801561001057600080fd5b50600436106100885760003560e01c8063887012c11161005b578063887012c114610115578063c8cb383414610131578063ced72f871461014d578063fc05ca311461016b57610088565b80633b19e84a1461008d578063410bd187146100ab57806369fe0e2d146100c95780636cd5ba8e146100e5575b600080fd5b610095610187565b6040516100a29190610df2565b60405180910390f35b6100b36101b1565b6040516100c09190610f28565b60405180910390f35b6100e360048036038101906100de9190610cc4565b6101ba565b005b6100ff60048036038101906100fa9190610cc4565b6101c4565b60405161010c9190610e6d565b60405180910390f35b61012f600480360381019061012a9190610cc4565b6101f6565b005b61014b60048036038101906101469190610be6565b610774565b005b6101556107b8565b6040516101629190610f28565b60405180910390f35b61018560048036038101906101809190610c38565b6107c2565b005b6000600260009054906101000a900473ffffffffffffffffffffffffffffffffffffffff16905090565b60008054905090565b8060038190555050565b6000806001600084815260200190815260200160002060020154146101ec57600190506101f1565b600090505b919050565b6101ff816101c4565b61023e576040517f08c379a000000000000000000000000000000000000000000000000000000000815260040161023590610ee8565b60405180910390fd5b6000600160008381526020019081526020016000206040518060a00160405290816000820160009054906101000a900473ffffffffffffffffffffffffffffffffffffffff1673ffffffffffffffffffffffffffffffffffffffff1673ffffffffffffffffffffffffffffffffffffffff1681526020016001820160009054906101000a900473ffffffffffffffffffffffffffffffffffffffff1673ffffffffffffffffffffffffffffffffffffffff1673ffffffffffffffffffffffffffffffffffffffff168152602001600282015481526020016003820160009054906101000a900473ffffffffffffffffffffffffffffffffffffffff1673ffffffffffffffffffffffffffffffffffffffff1673ffffffffffffffffffffffffffffffffffffffff16815260200160048201548152505090506000816060015173ffffffffffffffffffffffffffffffffffffffff1663dd62ed3e33306040518363ffffffff1660e01b81526004016103b7929190610e0d565b60206040518083038186803b1580156103cf57600080fd5b505afa1580156103e3573d6000803e3d6000fd5b505050506040513d601f19601f820116820180604052508101906104079190610ced565b1415610448576040517f08c379a000000000000000000000000000000000000000000000000000000000815260040161043f90610f08565b60405180910390fd5b8060800151816060015173ffffffffffffffffffffffffffffffffffffffff166370a08231336040518263ffffffff1660e01b815260040161048a9190610df2565b60206040518083038186803b1580156104a257600080fd5b505afa1580156104b6573d6000803e3d6000fd5b505050506040513d601f19601f820116820180604052508101906104da9190610ced565b101561051b576040517f08c379a000000000000000000000000000000000000000000000000000000000815260040161051290610ea8565b60405180910390fd5b806020015173ffffffffffffffffffffffffffffffffffffffff166323b872dd303384604001516040518463ffffffff1660e01b815260040161056093929190610e36565b600060405180830381600087803b15801561057a57600080fd5b505af115801561058e573d6000803e3d6000fd5b50505050806060015173ffffffffffffffffffffffffffffffffffffffff166323b872dd33600260009054906101000a900473ffffffffffffffffffffffffffffffffffffffff16606460035460646105e79190610f54565b86608001516105f69190610fdb565b6106009190610faa565b6040518463ffffffff1660e01b815260040161061e93929190610e36565b602060405180830381600087803b15801561063857600080fd5b505af115801561064c573d6000803e3d6000fd5b505050506040513d601f19601f820116820180604052508101906106709190610c9b565b50806060015173ffffffffffffffffffffffffffffffffffffffff166323b872dd600260009054906101000a900473ffffffffffffffffffffffffffffffffffffffff168360000151606460035460646106ca9190611035565b86608001516106d99190610fdb565b6106e39190610faa565b6040518463ffffffff1660e01b815260040161070193929190610e36565b602060405180830381600087803b15801561071b57600080fd5b505af115801561072f573d6000803e3d6000fd5b505050506040513d601f19601f820116820180604052508101906107539190610c9b565b50600060016000848152602001908152602001600020600201819055505050565b80600260006101000a81548173ffffffffffffffffffffffffffffffffffffffff021916908373ffffffffffffffffffffffffffffffffffffffff16021790555050565b6000600354905090565b3373ffffffffffffffffffffffffffffffffffffffff168473ffffffffffffffffffffffffffffffffffffffff16636352211e856040518263ffffffff1660e01b81526004016108129190610f28565b60206040518083038186803b15801561082a57600080fd5b505afa15801561083e573d6000803e3d6000fd5b505050506040513d601f19601f820116820180604052508101906108629190610c0f565b73ffffffffffffffffffffffffffffffffffffffff16146108b8576040517f08c379a00000000000000000000000000000000000000000000000000000000081526004016108af90610ec8565b60405180910390fd5b8373ffffffffffffffffffffffffffffffffffffffff1663e985e9c533306040518363ffffffff1660e01b81526004016108f3929190610e0d565b60206040518083038186803b15801561090b57600080fd5b505afa15801561091f573d6000803e3d6000fd5b505050506040513d601f19601f820116820180604052508101906109439190610c9b565b610982576040517f08c379a000000000000000000000000000000000000000000000000000000000815260040161097990610e88565b60405180910390fd5b8373ffffffffffffffffffffffffffffffffffffffff166323b872dd3330866040518463ffffffff1660e01b81526004016109bf93929190610e36565b600060405180830381600087803b1580156109d957600080fd5b505af11580156109ed573d6000803e3d6000fd5b5050505060006040518060a001604052803373ffffffffffffffffffffffffffffffffffffffff1681526020018673ffffffffffffffffffffffffffffffffffffffff1681526020018581526020018473ffffffffffffffffffffffffffffffffffffffff16815260200183815250905080600160008054815260200190815260200160002060008201518160000160006101000a81548173ffffffffffffffffffffffffffffffffffffffff021916908373ffffffffffffffffffffffffffffffffffffffff16021790555060208201518160010160006101000a81548173ffffffffffffffffffffffffffffffffffffffff021916908373ffffffffffffffffffffffffffffffffffffffff1602179055506040820151816002015560608201518160030160006101000a81548173ffffffffffffffffffffffffffffffffffffffff021916908373ffffffffffffffffffffffffffffffffffffffff16021790555060808201518160040155905050600080815480929190610b71906110b1565b91905055505050505050565b600081359050610b8c81611271565b92915050565b600081519050610ba181611271565b92915050565b600081519050610bb681611288565b92915050565b600081359050610bcb8161129f565b92915050565b600081519050610be08161129f565b92915050565b600060208284031215610bf857600080fd5b6000610c0684828501610b7d565b91505092915050565b600060208284031215610c2157600080fd5b6000610c2f84828501610b92565b91505092915050565b60008060008060808587031215610c4e57600080fd5b6000610c5c87828801610b7d565b9450506020610c6d87828801610bbc565b9350506040610c7e87828801610b7d565b9250506060610c8f87828801610bbc565b91505092959194509250565b600060208284031215610cad57600080fd5b6000610cbb84828501610ba7565b91505092915050565b600060208284031215610cd657600080fd5b6000610ce484828501610bbc565b91505092915050565b600060208284031215610cff57600080fd5b6000610d0d84828501610bd1565b91505092915050565b610d1f81611069565b82525050565b610d2e8161107b565b82525050565b6000610d41601583610f43565b9150610d4c82611158565b602082019050919050565b6000610d64603a83610f43565b9150610d6f82611181565b604082019050919050565b6000610d87602983610f43565b9150610d92826111d0565b604082019050919050565b6000610daa600d83610f43565b9150610db58261121f565b602082019050919050565b6000610dcd601783610f43565b9150610dd882611248565b602082019050919050565b610dec816110a7565b82525050565b6000602082019050610e076000830184610d16565b92915050565b6000604082019050610e226000830185610d16565b610e2f6020830184610d16565b9392505050565b6000606082019050610e4b6000830186610d16565b610e586020830185610d16565b610e656040830184610de3565b949350505050565b6000602082019050610e826000830184610d25565b92915050565b60006020820190508181036000830152610ea181610d34565b9050919050565b60006020820190508181036000830152610ec181610d57565b9050919050565b60006020820190508181036000830152610ee181610d7a565b9050919050565b60006020820190508181036000830152610f0181610d9d565b9050919050565b60006020820190508181036000830152610f2181610dc0565b9050919050565b6000602082019050610f3d6000830184610de3565b92915050565b600082825260208201905092915050565b6000610f5f826110a7565b9150610f6a836110a7565b9250827fffffffffffffffffffffffffffffffffffffffffffffffffffffffffffffffff03821115610f9f57610f9e6110fa565b5b828201905092915050565b6000610fb5826110a7565b9150610fc0836110a7565b925082610fd057610fcf611129565b5b828204905092915050565b6000610fe6826110a7565b9150610ff1836110a7565b9250817fffffffffffffffffffffffffffffffffffffffffffffffffffffffffffffffff048311821515161561102a576110296110fa565b5b828202905092915050565b6000611040826110a7565b915061104b836110a7565b92508282101561105e5761105d6110fa565b5b828203905092915050565b600061107482611087565b9050919050565b60008115159050919050565b600073ffffffffffffffffffffffffffffffffffffffff82169050919050565b6000819050919050565b60006110bc826110a7565b91507fffffffffffffffffffffffffffffffffffffffffffffffffffffffffffffffff8214156110ef576110ee6110fa565b5b600182019050919050565b7f4e487b7100000000000000000000000000000000000000000000000000000000600052601160045260246000fd5b7f4e487b7100000000000000000000000000000000000000000000000000000000600052601260045260246000fd5b7f4e4654206e65656420746f20617070726f76616c2e0000000000000000000000600082015250565b7f427579657227732062616c616e6365206861766520746f20677265617465722060008201527f7468616e206f7220657175616c206e6674732773207072696365000000000000602082015250565b7f4f6e6c79204e46542773206f776e65722068617665207065726d697420746f2060008201527f7472616e736665722e0000000000000000000000000000000000000000000000602082015250565b7f4f72646572206578697473656400000000000000000000000000000000000000600082015250565b7f546f6b656e206e65656420746f20617070726f76616c2e000000000000000000600082015250565b61127a81611069565b811461128557600080fd5b50565b6112918161107b565b811461129c57600080fd5b50565b6112a8816110a7565b81146112b357600080fd5b5056fea2646970667358221220e750bd19de5530bef96ca810ad58de8149d972c334dc656ed1b667fa0712878b64736f6c63430008020033",
  "linkReferences": {},
  "deployedLinkReferences": {}
}