{
  "_format": "hh-sol-artifact-1",
  "contractName": "NFTMarketplaceV3",
  "sourceName": "contracts/NFTMarketplace_V3.sol",
  "abi": [
    {
      "inputs": [
        {
          "internalType": "address",
          "name": "_treasuryAddress",
          "type": "address"
        }
      ],
      "name": "addTreasury",
      "outputs": [],
      "stateMutability": "nonpayable",
      "type": "function"
    },
    {
      "inputs": [
        {
          "internalType": "uint256",
          "name": "_orderId",
          "type": "uint256"
        }
      ],
      "name": "cancelOrder",
      "outputs": [],
      "stateMutability": "nonpayable",
      "type": "function"
    },
    {
      "inputs": [
        {
          "internalType": "address",
          "name": "_collection",
          "type": "address"
        },
        {
          "internalType": "uint256",
          "name": "_nftsId",
          "type": "uint256"
        },
        {
          "internalType": "address",
          "name": "_tokenAddress",
          "type": "address"
        },
        {
          "internalType": "uint256",
          "name": "_price",
          "type": "uint256"
        }
      ],
      "name": "createOrder",
      "outputs": [],
      "stateMutability": "nonpayable",
      "type": "function"
    },
    {
      "inputs": [
        {
          "internalType": "address",
          "name": "account",
          "type": "address"
        }
      ],
      "name": "earned",
      "outputs": [
        {
          "internalType": "uint256",
          "name": "",
          "type": "uint256"
        }
      ],
      "stateMutability": "view",
      "type": "function"
    },
    {
      "inputs": [],
      "name": "getCounterOrder",
      "outputs": [
        {
          "internalType": "uint256",
          "name": "",
          "type": "uint256"
        }
      ],
      "stateMutability": "view",
      "type": "function"
    },
    {
      "inputs": [],
      "name": "getFee",
      "outputs": [
        {
          "internalType": "uint256",
          "name": "",
          "type": "uint256"
        }
      ],
      "stateMutability": "view",
      "type": "function"
    },
    {
      "inputs": [],
      "name": "getReward",
      "outputs": [],
      "stateMutability": "nonpayable",
      "type": "function"
    },
    {
      "inputs": [],
      "name": "getTreasury",
      "outputs": [
        {
          "internalType": "address",
          "name": "",
          "type": "address"
        }
      ],
      "stateMutability": "view",
      "type": "function"
    },
    {
      "inputs": [],
      "name": "initializer",
      "outputs": [],
      "stateMutability": "nonpayable",
      "type": "function"
    },
    {
      "inputs": [
        {
          "internalType": "uint256",
          "name": "key",
          "type": "uint256"
        }
      ],
      "name": "isOrderExists",
      "outputs": [
        {
          "internalType": "bool",
          "name": "",
          "type": "bool"
        }
      ],
      "stateMutability": "view",
      "type": "function"
    },
    {
      "inputs": [],
      "name": "lastTimeRewardApplicable",
      "outputs": [
        {
          "internalType": "uint256",
          "name": "",
          "type": "uint256"
        }
      ],
      "stateMutability": "view",
      "type": "function"
    },
    {
      "inputs": [],
      "name": "lastUpdateTime",
      "outputs": [
        {
          "internalType": "uint256",
          "name": "",
          "type": "uint256"
        }
      ],
      "stateMutability": "view",
      "type": "function"
    },
    {
      "inputs": [
        {
          "internalType": "uint256",
          "name": "_orderId",
          "type": "uint256"
        }
      ],
      "name": "matchOrder",
      "outputs": [],
      "stateMutability": "nonpayable",
      "type": "function"
    },
    {
      "inputs": [],
      "name": "parentNFT",
      "outputs": [
        {
          "internalType": "contract IERC721",
          "name": "",
          "type": "address"
        }
      ],
      "stateMutability": "view",
      "type": "function"
    },
    {
      "inputs": [],
      "name": "periodFinish",
      "outputs": [
        {
          "internalType": "uint256",
          "name": "",
          "type": "uint256"
        }
      ],
      "stateMutability": "view",
      "type": "function"
    },
    {
      "inputs": [
        {
          "internalType": "address",
          "name": "account",
          "type": "address"
        }
      ],
      "name": "rewardPerToken",
      "outputs": [
        {
          "internalType": "uint256",
          "name": "",
          "type": "uint256"
        }
      ],
      "stateMutability": "view",
      "type": "function"
    },
    {
      "inputs": [],
      "name": "rewardPerTokenStored",
      "outputs": [
        {
          "internalType": "uint256",
          "name": "",
          "type": "uint256"
        }
      ],
      "stateMutability": "view",
      "type": "function"
    },
    {
      "inputs": [
        {
          "internalType": "address",
          "name": "",
          "type": "address"
        }
      ],
      "name": "rewards",
      "outputs": [
        {
          "internalType": "uint256",
          "name": "",
          "type": "uint256"
        }
      ],
      "stateMutability": "view",
      "type": "function"
    },
    {
      "inputs": [],
      "name": "rewardsToken",
      "outputs": [
        {
          "internalType": "contract IERC20",
          "name": "",
          "type": "address"
        }
      ],
      "stateMutability": "view",
      "type": "function"
    },
    {
      "inputs": [
        {
          "internalType": "uint256",
          "name": "_fee",
          "type": "uint256"
        }
      ],
      "name": "setFee",
      "outputs": [],
      "stateMutability": "nonpayable",
      "type": "function"
    },
    {
      "inputs": [
        {
          "internalType": "uint256",
          "name": "_tokenId",
          "type": "uint256"
        },
        {
          "internalType": "uint256",
          "name": "_amount",
          "type": "uint256"
        },
        {
          "internalType": "uint256",
          "name": "_hashrate",
          "type": "uint256"
        }
      ],
      "name": "stake",
      "outputs": [],
      "stateMutability": "nonpayable",
      "type": "function"
    },
    {
      "inputs": [
        {
          "internalType": "address",
          "name": "",
          "type": "address"
        }
      ],
      "name": "stakes",
      "outputs": [
        {
          "internalType": "uint256",
          "name": "tokenId",
          "type": "uint256"
        },
        {
          "internalType": "uint256",
          "name": "amount",
          "type": "uint256"
        },
        {
          "internalType": "uint256",
          "name": "timestamp",
          "type": "uint256"
        },
        {
          "internalType": "uint256",
          "name": "hashrate",
          "type": "uint256"
        }
      ],
      "stateMutability": "view",
      "type": "function"
    },
    {
      "inputs": [
        {
          "internalType": "address",
          "name": "",
          "type": "address"
        }
      ],
      "name": "stakingTime",
      "outputs": [
        {
          "internalType": "uint256",
          "name": "",
          "type": "uint256"
        }
      ],
      "stateMutability": "view",
      "type": "function"
    },
    {
      "inputs": [],
      "name": "stakingToken",
      "outputs": [
        {
          "internalType": "contract IERC721",
          "name": "",
          "type": "address"
        }
      ],
      "stateMutability": "view",
      "type": "function"
    },
    {
      "inputs": [],
      "name": "unstake",
      "outputs": [],
      "stateMutability": "nonpayable",
      "type": "function"
    },
    {
      "inputs": [
        {
          "internalType": "address",
          "name": "",
          "type": "address"
        }
      ],
      "name": "userRewardPerTokenPaid",
      "outputs": [
        {
          "internalType": "uint256",
          "name": "",
          "type": "uint256"
        }
      ],
      "stateMutability": "view",
      "type": "function"
    }
  ],
  "bytecode": "0x608060405234801561001057600080fd5b50612737806100206000396000f3fe608060405234801561001057600080fd5b506004361061018d5760003560e01c8063887012c1116100de578063c8f33c9111610097578063df136d6511610071578063df136d651461044f578063ebe2b12b1461046d578063f12297771461048b578063fc05ca31146104bb5761018d565b8063c8f33c91146103f5578063ced72f8714610413578063d1af0c7d146104315761018d565b8063887012c1146103495780638b876347146103655780639ce110d714610395578063a638f2e21461039f578063b8e33fb2146103bb578063c8cb3834146103d95761018d565b8063410bd1871161014b57806369fe0e2d1161012557806369fe0e2d146102c15780636cd5ba8e146102dd57806372f702f31461030d57806380faa57d1461032b5761018d565b8063410bd18714610257578063514fcac714610275578063583d42fd146102915761018d565b80628cc262146101925780630700037d146101c257806316934fc4146101f25780632def6620146102255780633b19e84a1461022f5780633d18b9121461024d575b600080fd5b6101ac60048036038101906101a79190611dd6565b6104d7565b6040516101b9919061226a565b60405180910390f35b6101dc60048036038101906101d79190611dd6565b6105f6565b6040516101e9919061226a565b60405180910390f35b61020c60048036038101906102079190611dd6565b61060e565b60405161021c9493929190612285565b60405180910390f35b61022d61063e565b005b61023761091e565b6040516102449190612095565b60405180910390f35b610255610948565b005b61025f610b74565b60405161026c919061226a565b60405180910390f35b61028f600480360381019061028a9190611eb4565b610b7d565b005b6102ab60048036038101906102a69190611dd6565b610cbe565b6040516102b8919061226a565b60405180910390f35b6102db60048036038101906102d69190611eb4565b610cd6565b005b6102f760048036038101906102f29190611eb4565b610d70565b6040516103049190612139565b60405180910390f35b610315610da2565b604051610322919061216f565b60405180910390f35b610333610dc8565b604051610340919061226a565b60405180910390f35b610363600480360381019061035e9190611eb4565b610de2565b005b61037f600480360381019061037a9190611dd6565b61138d565b60405161038c919061226a565b60405180910390f35b61039d6113a5565b005b6103b960048036038101906103b49190611f06565b611445565b005b6103c3611664565b6040516103d0919061216f565b60405180910390f35b6103f360048036038101906103ee9190611dd6565b61168a565b005b6103fd61175e565b60405161040a919061226a565b60405180910390f35b61041b611764565b604051610428919061226a565b60405180910390f35b61043961176e565b6040516104469190612154565b60405180910390f35b610457611794565b604051610464919061226a565b60405180910390f35b61047561179a565b604051610482919061226a565b60405180910390f35b6104a560048036038101906104a09190611dd6565b6117a0565b6040516104b2919061226a565b60405180910390f35b6104d560048036038101906104d09190611e28565b611870565b005b60006105ef600860008473ffffffffffffffffffffffffffffffffffffffff1673ffffffffffffffffffffffffffffffffffffffff168152602001908152602001600020546105e1670de0b6b3a76400006105d3610585600960008973ffffffffffffffffffffffffffffffffffffffff1673ffffffffffffffffffffffffffffffffffffffff16815260200190815260200160002054610577896117a0565b611c5490919063ffffffff16565b600c60008973ffffffffffffffffffffffffffffffffffffffff1673ffffffffffffffffffffffffffffffffffffffff16815260200190815260200160002054611ca190919063ffffffff16565b611d0a90919063ffffffff16565b611d2090919063ffffffff16565b9050919050565b60086020528060005260406000206000915090505481565b600a6020528060005260406000206000915090508060000154908060010154908060020154908060030154905084565b33610648816117a0565b600581905550610656610dc8565b600681905550600073ffffffffffffffffffffffffffffffffffffffff168173ffffffffffffffffffffffffffffffffffffffff161461072357610699816104d7565b600860008373ffffffffffffffffffffffffffffffffffffffff1673ffffffffffffffffffffffffffffffffffffffff16815260200190815260200160002081905550600554600960008373ffffffffffffffffffffffffffffffffffffffff1673ffffffffffffffffffffffffffffffffffffffff168152602001908152602001600020819055505b600e60009054906101000a900473ffffffffffffffffffffffffffffffffffffffff1673ffffffffffffffffffffffffffffffffffffffff166323b872dd3033600a60003373ffffffffffffffffffffffffffffffffffffffff1673ffffffffffffffffffffffffffffffffffffffff168152602001908152602001600020600001546040518463ffffffff1660e01b81526004016107c4939291906120d9565b600060405180830381600087803b1580156107de57600080fd5b505af11580156107f2573d6000803e3d6000fd5b50505050600a60003373ffffffffffffffffffffffffffffffffffffffff1673ffffffffffffffffffffffffffffffffffffffff168152602001908152602001600020600201544261084491906123bc565b600b60003373ffffffffffffffffffffffffffffffffffffffff1673ffffffffffffffffffffffffffffffffffffffff168152602001908152602001600020600082825461089291906122db565b92505081905550600a60003373ffffffffffffffffffffffffffffffffffffffff1673ffffffffffffffffffffffffffffffffffffffff1681526020019081526020016000206000808201600090556001820160009055600282016000905560038201600090555050600d600081548092919061090e90612480565b919050555061091b610948565b50565b6000600260009054906101000a900473ffffffffffffffffffffffffffffffffffffffff16905090565b33610952816117a0565b600581905550610960610dc8565b600681905550600073ffffffffffffffffffffffffffffffffffffffff168173ffffffffffffffffffffffffffffffffffffffff1614610a2d576109a3816104d7565b600860008373ffffffffffffffffffffffffffffffffffffffff1673ffffffffffffffffffffffffffffffffffffffff16815260200190815260200160002081905550600554600960008373ffffffffffffffffffffffffffffffffffffffff1673ffffffffffffffffffffffffffffffffffffffff168152602001908152602001600020819055505b6000600860003373ffffffffffffffffffffffffffffffffffffffff1673ffffffffffffffffffffffffffffffffffffffff1681526020019081526020016000205490506000811115610b70576000600860003373ffffffffffffffffffffffffffffffffffffffff1673ffffffffffffffffffffffffffffffffffffffff16815260200190815260200160002081905550600f60009054906101000a900473ffffffffffffffffffffffffffffffffffffffff1673ffffffffffffffffffffffffffffffffffffffff1663a9059cbb33836040518363ffffffff1660e01b8152600401610b1c929190612110565b602060405180830381600087803b158015610b3657600080fd5b505af1158015610b4a573d6000803e3d6000fd5b505050506040513d601f19601f82011682018060405250810190610b6e9190611e8b565b505b5050565b60008054905090565b610b8681610d70565b15610bc6576040517f08c379a0000000000000000000000000000000000000000000000000000000008152600401610bbd906121ca565b60405180910390fd5b60006001600083815260200190815260200160002090508060010160009054906101000a900473ffffffffffffffffffffffffffffffffffffffff1673ffffffffffffffffffffffffffffffffffffffff166323b872dd303384600201546040518463ffffffff1660e01b8152600401610c42939291906120d9565b600060405180830381600087803b158015610c5c57600080fd5b505af1158015610c70573d6000803e3d6000fd5b5050505060006001600084815260200190815260200160002060050160006101000a81548160ff021916908315150217905550600080815480929190610cb590612480565b91905055505050565b600b6020528060005260406000206000915090505481565b600460009054906101000a900473ffffffffffffffffffffffffffffffffffffffff1673ffffffffffffffffffffffffffffffffffffffff163373ffffffffffffffffffffffffffffffffffffffff1614610d66576040517f08c379a0000000000000000000000000000000000000000000000000000000008152600401610d5d9061222a565b60405180910390fd5b8060038190555050565b600080600160008481526020019081526020016000206002015414610d985760019050610d9d565b600090505b919050565b601060009054906101000a900473ffffffffffffffffffffffffffffffffffffffff1681565b60006007544210610ddb57600754610ddd565b425b905090565b610deb81610d70565b610e2a576040517f08c379a0000000000000000000000000000000000000000000000000000000008152600401610e219061220a565b60405180910390fd5b6000600160008381526020019081526020016000206040518060c00160405290816000820160009054906101000a900473ffffffffffffffffffffffffffffffffffffffff1673ffffffffffffffffffffffffffffffffffffffff1673ffffffffffffffffffffffffffffffffffffffff1681526020016001820160009054906101000a900473ffffffffffffffffffffffffffffffffffffffff1673ffffffffffffffffffffffffffffffffffffffff1673ffffffffffffffffffffffffffffffffffffffff168152602001600282015481526020016003820160009054906101000a900473ffffffffffffffffffffffffffffffffffffffff1673ffffffffffffffffffffffffffffffffffffffff1673ffffffffffffffffffffffffffffffffffffffff168152602001600482015481526020016005820160009054906101000a900460ff16151515158152505090506000816060015173ffffffffffffffffffffffffffffffffffffffff1663dd62ed3e33306040518363ffffffff1660e01b8152600401610fbe9291906120b0565b60206040518083038186803b158015610fd657600080fd5b505afa158015610fea573d6000803e3d6000fd5b505050506040513d601f19601f8201168201806040525081019061100e9190611edd565b141561104f576040517f08c379a00000000000000000000000000000000000000000000000000000000081526004016110469061224a565b60405180910390fd5b8060800151816060015173ffffffffffffffffffffffffffffffffffffffff166370a08231336040518263ffffffff1660e01b81526004016110919190612095565b60206040518083038186803b1580156110a957600080fd5b505afa1580156110bd573d6000803e3d6000fd5b505050506040513d601f19601f820116820180604052508101906110e19190611edd565b1015611122576040517f08c379a0000000000000000000000000000000000000000000000000000000008152600401611119906121aa565b60405180910390fd5b806020015173ffffffffffffffffffffffffffffffffffffffff166323b872dd303384604001516040518463ffffffff1660e01b8152600401611167939291906120d9565b600060405180830381600087803b15801561118157600080fd5b505af1158015611195573d6000803e3d6000fd5b50505050806060015173ffffffffffffffffffffffffffffffffffffffff166323b872dd33600260009054906101000a900473ffffffffffffffffffffffffffffffffffffffff16606460035460646111ee91906122db565b86608001516111fd9190612362565b6112079190612331565b6040518463ffffffff1660e01b8152600401611225939291906120d9565b602060405180830381600087803b15801561123f57600080fd5b505af1158015611253573d6000803e3d6000fd5b505050506040513d601f19601f820116820180604052508101906112779190611e8b565b50806060015173ffffffffffffffffffffffffffffffffffffffff166323b872dd600260009054906101000a900473ffffffffffffffffffffffffffffffffffffffff168360000151606460035460646112d191906123bc565b86608001516112e09190612362565b6112ea9190612331565b6040518463ffffffff1660e01b8152600401611308939291906120d9565b602060405180830381600087803b15801561132257600080fd5b505af1158015611336573d6000803e3d6000fd5b505050506040513d601f19601f8201168201806040525081019061135a9190611e8b565b50600180600084815260200190815260200160002060050160006101000a81548160ff0219169083151502179055505050565b60096020528060005260406000206000915090505481565b33600460006101000a81548173ffffffffffffffffffffffffffffffffffffffff021916908373ffffffffffffffffffffffffffffffffffffffff16021790555073d9145cce52d386f254917e481eb44e9943f39138600e60006101000a81548173ffffffffffffffffffffffffffffffffffffffff021916908373ffffffffffffffffffffffffffffffffffffffff1602179055506000600781905550565b3361144f816117a0565b60058190555061145d610dc8565b600681905550600073ffffffffffffffffffffffffffffffffffffffff168173ffffffffffffffffffffffffffffffffffffffff161461152a576114a0816104d7565b600860008373ffffffffffffffffffffffffffffffffffffffff1673ffffffffffffffffffffffffffffffffffffffff16815260200190815260200160002081905550600554600960008373ffffffffffffffffffffffffffffffffffffffff1673ffffffffffffffffffffffffffffffffffffffff168152602001908152602001600020819055505b604051806080016040528085815260200184815260200142815260200183815250600a60003373ffffffffffffffffffffffffffffffffffffffff1673ffffffffffffffffffffffffffffffffffffffff16815260200190815260200160002060008201518160000155602082015181600101556040820151816002015560608201518160030155905050600e60009054906101000a900473ffffffffffffffffffffffffffffffffffffffff1673ffffffffffffffffffffffffffffffffffffffff166323b872dd3330876040518463ffffffff1660e01b8152600401611614939291906120d9565b600060405180830381600087803b15801561162e57600080fd5b505af1158015611642573d6000803e3d6000fd5b50505050600d6000815480929190611659906124aa565b919050555050505050565b600e60009054906101000a900473ffffffffffffffffffffffffffffffffffffffff1681565b600460009054906101000a900473ffffffffffffffffffffffffffffffffffffffff1673ffffffffffffffffffffffffffffffffffffffff163373ffffffffffffffffffffffffffffffffffffffff161461171a576040517f08c379a00000000000000000000000000000000000000000000000000000000081526004016117119061222a565b60405180910390fd5b80600260006101000a81548173ffffffffffffffffffffffffffffffffffffffff021916908373ffffffffffffffffffffffffffffffffffffffff16021790555050565b60065481565b6000600354905090565b600f60009054906101000a900473ffffffffffffffffffffffffffffffffffffffff1681565b60055481565b60075481565b600080600d5414156117b657600554905061186b565b611868611857600d54611849670de0b6b3a764000061183b600a60008973ffffffffffffffffffffffffffffffffffffffff1673ffffffffffffffffffffffffffffffffffffffff1681526020019081526020016000206003015461182d60065461181f610dc8565b611c5490919063ffffffff16565b611ca190919063ffffffff16565b611ca190919063ffffffff16565b611d0a90919063ffffffff16565b600554611d2090919063ffffffff16565b90505b919050565b3373ffffffffffffffffffffffffffffffffffffffff168473ffffffffffffffffffffffffffffffffffffffff16636352211e856040518263ffffffff1660e01b81526004016118c0919061226a565b60206040518083038186803b1580156118d857600080fd5b505afa1580156118ec573d6000803e3d6000fd5b505050506040513d601f19601f820116820180604052508101906119109190611dff565b73ffffffffffffffffffffffffffffffffffffffff1614611966576040517f08c379a000000000000000000000000000000000000000000000000000000000815260040161195d906121ea565b60405180910390fd5b8373ffffffffffffffffffffffffffffffffffffffff1663e985e9c533306040518363ffffffff1660e01b81526004016119a19291906120b0565b60206040518083038186803b1580156119b957600080fd5b505afa1580156119cd573d6000803e3d6000fd5b505050506040513d601f19601f820116820180604052508101906119f19190611e8b565b611a30576040517f08c379a0000000000000000000000000000000000000000000000000000000008152600401611a279061218a565b60405180910390fd5b8373ffffffffffffffffffffffffffffffffffffffff166323b872dd3330866040518463ffffffff1660e01b8152600401611a6d939291906120d9565b600060405180830381600087803b158015611a8757600080fd5b505af1158015611a9b573d6000803e3d6000fd5b5050505060006040518060c001604052803373ffffffffffffffffffffffffffffffffffffffff1681526020018673ffffffffffffffffffffffffffffffffffffffff1681526020018581526020018473ffffffffffffffffffffffffffffffffffffffff16815260200183815260200160001515815250905080600160008054815260200190815260200160002060008201518160000160006101000a81548173ffffffffffffffffffffffffffffffffffffffff021916908373ffffffffffffffffffffffffffffffffffffffff16021790555060208201518160010160006101000a81548173ffffffffffffffffffffffffffffffffffffffff021916908373ffffffffffffffffffffffffffffffffffffffff1602179055506040820151816002015560608201518160030160006101000a81548173ffffffffffffffffffffffffffffffffffffffff021916908373ffffffffffffffffffffffffffffffffffffffff1602179055506080820151816004015560a08201518160050160006101000a81548160ff021916908315150217905550905050600080815480929190611c48906124aa565b91905055505050505050565b600082821115611c8d577f4e487b7100000000000000000000000000000000000000000000000000000000600052600160045260246000fd5b8183611c9991906123bc565b905092915050565b600080831415611cb45760009050611d04565b8183611cc09190612362565b9050818382611ccf9190612331565b14611d03577f4e487b7100000000000000000000000000000000000000000000000000000000600052600160045260246000fd5b5b92915050565b60008183611d189190612331565b905092915050565b60008183611d2e91906122db565b905082811015611d67577f4e487b7100000000000000000000000000000000000000000000000000000000600052600160045260246000fd5b92915050565b600081359050611d7c816126bc565b92915050565b600081519050611d91816126bc565b92915050565b600081519050611da6816126d3565b92915050565b600081359050611dbb816126ea565b92915050565b600081519050611dd0816126ea565b92915050565b600060208284031215611de857600080fd5b6000611df684828501611d6d565b91505092915050565b600060208284031215611e1157600080fd5b6000611e1f84828501611d82565b91505092915050565b60008060008060808587031215611e3e57600080fd5b6000611e4c87828801611d6d565b9450506020611e5d87828801611dac565b9350506040611e6e87828801611d6d565b9250506060611e7f87828801611dac565b91505092959194509250565b600060208284031215611e9d57600080fd5b6000611eab84828501611d97565b91505092915050565b600060208284031215611ec657600080fd5b6000611ed484828501611dac565b91505092915050565b600060208284031215611eef57600080fd5b6000611efd84828501611dc1565b91505092915050565b600080600060608486031215611f1b57600080fd5b6000611f2986828701611dac565b9350506020611f3a86828701611dac565b9250506040611f4b86828701611dac565b9150509250925092565b611f5e816123f0565b82525050565b611f6d81612402565b82525050565b611f7c81612438565b82525050565b611f8b8161245c565b82525050565b6000611f9e6015836122ca565b9150611fa982612551565b602082019050919050565b6000611fc1603a836122ca565b9150611fcc8261257a565b604082019050919050565b6000611fe46011836122ca565b9150611fef826125c9565b602082019050919050565b60006120076029836122ca565b9150612012826125f2565b604082019050919050565b600061202a600d836122ca565b915061203582612641565b602082019050919050565b600061204d6015836122ca565b91506120588261266a565b602082019050919050565b60006120706017836122ca565b915061207b82612693565b602082019050919050565b61208f8161242e565b82525050565b60006020820190506120aa6000830184611f55565b92915050565b60006040820190506120c56000830185611f55565b6120d26020830184611f55565b9392505050565b60006060820190506120ee6000830186611f55565b6120fb6020830185611f55565b6121086040830184612086565b949350505050565b60006040820190506121256000830185611f55565b6121326020830184612086565b9392505050565b600060208201905061214e6000830184611f64565b92915050565b60006020820190506121696000830184611f73565b92915050565b60006020820190506121846000830184611f82565b92915050565b600060208201905081810360008301526121a381611f91565b9050919050565b600060208201905081810360008301526121c381611fb4565b9050919050565b600060208201905081810360008301526121e381611fd7565b9050919050565b6000602082019050818103600083015261220381611ffa565b9050919050565b600060208201905081810360008301526122238161201d565b9050919050565b6000602082019050818103600083015261224381612040565b9050919050565b6000602082019050818103600083015261226381612063565b9050919050565b600060208201905061227f6000830184612086565b92915050565b600060808201905061229a6000830187612086565b6122a76020830186612086565b6122b46040830185612086565b6122c16060830184612086565b95945050505050565b600082825260208201905092915050565b60006122e68261242e565b91506122f18361242e565b9250827fffffffffffffffffffffffffffffffffffffffffffffffffffffffffffffffff03821115612326576123256124f3565b5b828201905092915050565b600061233c8261242e565b91506123478361242e565b92508261235757612356612522565b5b828204905092915050565b600061236d8261242e565b91506123788361242e565b9250817fffffffffffffffffffffffffffffffffffffffffffffffffffffffffffffffff04831182151516156123b1576123b06124f3565b5b828202905092915050565b60006123c78261242e565b91506123d28361242e565b9250828210156123e5576123e46124f3565b5b828203905092915050565b60006123fb8261240e565b9050919050565b60008115159050919050565b600073ffffffffffffffffffffffffffffffffffffffff82169050919050565b6000819050919050565b60006124438261244a565b9050919050565b60006124558261240e565b9050919050565b60006124678261246e565b9050919050565b60006124798261240e565b9050919050565b600061248b8261242e565b9150600082141561249f5761249e6124f3565b5b600182039050919050565b60006124b58261242e565b91507fffffffffffffffffffffffffffffffffffffffffffffffffffffffffffffffff8214156124e8576124e76124f3565b5b600182019050919050565b7f4e487b7100000000000000000000000000000000000000000000000000000000600052601160045260246000fd5b7f4e487b7100000000000000000000000000000000000000000000000000000000600052601260045260246000fd5b7f4e4654206e65656420746f20617070726f76616c2e0000000000000000000000600082015250565b7f427579657227732062616c616e6365206861766520746f20677265617465722060008201527f7468616e206f7220657175616c206e6674732773207072696365000000000000602082015250565b7f4f72646572206e6f742065786974736564000000000000000000000000000000600082015250565b7f4f6e6c79204e46542773206f776e65722068617665207065726d697420746f2060008201527f7472616e736665722e0000000000000000000000000000000000000000000000602082015250565b7f4f72646572206578697473656400000000000000000000000000000000000000600082015250565b7f446f6e742068617665207065726d697373696f6e210000000000000000000000600082015250565b7f546f6b656e206e65656420746f20617070726f76616c2e000000000000000000600082015250565b6126c5816123f0565b81146126d057600080fd5b50565b6126dc81612402565b81146126e757600080fd5b50565b6126f38161242e565b81146126fe57600080fd5b5056fea2646970667358221220cd1bca9e3fa3af9618a94a92278d37afd46268a7fc85c6ef82f46a2271e81e7b64736f6c63430008020033",
  "linkReferences": {},
  "deployedLinkReferences": {}
}